{
  "_format": "hh-sol-artifact-1",
  "contractName": "SwapContract",
  "sourceName": "contracts/SwapContract.sol",
  "abi": [
    {
      "inputs": [
        {
          "internalType": "contract IOneSplit",
          "name": "_onesplit",
          "type": "address"
        }
      ],
      "stateMutability": "nonpayable",
      "type": "constructor"
    },
    {
      "anonymous": false,
      "inputs": [
        {
          "indexed": true,
          "internalType": "address",
          "name": "previousOwner",
          "type": "address"
        },
        {
          "indexed": true,
          "internalType": "address",
          "name": "newOwner",
          "type": "address"
        }
      ],
      "name": "OwnershipTransferred",
      "type": "event"
    },
    {
      "anonymous": false,
      "inputs": [
        {
          "indexed": true,
          "internalType": "address",
          "name": "user",
          "type": "address"
        },
        {
          "indexed": false,
          "internalType": "address",
          "name": "destToken",
          "type": "address"
        },
        {
          "indexed": false,
          "internalType": "address",
          "name": "toToken",
          "type": "address"
        },
        {
          "indexed": false,
          "internalType": "uint256",
          "name": "amount",
          "type": "uint256"
        }
      ],
      "name": "SwapExecuted",
      "type": "event"
    },
    {
      "anonymous": false,
      "inputs": [
        {
          "indexed": true,
          "internalType": "address",
          "name": "user",
          "type": "address"
        },
        {
          "indexed": false,
          "internalType": "uint256",
          "name": "amount",
          "type": "uint256"
        }
      ],
      "name": "Withdrawal",
      "type": "event"
    },
    {
      "inputs": [
        {
          "internalType": "address",
          "name": "",
          "type": "address"
        },
        {
          "internalType": "contract IERC20",
          "name": "",
          "type": "address"
        }
      ],
      "name": "balances",
      "outputs": [
        {
          "internalType": "uint256",
          "name": "",
          "type": "uint256"
        }
      ],
      "stateMutability": "view",
      "type": "function"
    },
    {
      "inputs": [
        {
          "internalType": "contract IERC20",
          "name": "token",
          "type": "address"
        },
        {
          "internalType": "uint256",
          "name": "amount",
          "type": "uint256"
        },
        {
          "internalType": "address",
          "name": "follower",
          "type": "address"
        }
      ],
      "name": "depositERC20",
      "outputs": [],
      "stateMutability": "nonpayable",
      "type": "function"
    },
    {
      "inputs": [
        {
          "internalType": "address",
          "name": "",
          "type": "address"
        }
      ],
      "name": "deposits",
      "outputs": [
        {
          "internalType": "uint256",
          "name": "",
          "type": "uint256"
        }
      ],
      "stateMutability": "view",
      "type": "function"
    },
    {
      "inputs": [
        {
          "internalType": "contract IERC20",
          "name": "fromToken",
          "type": "address"
        },
        {
          "internalType": "contract IERC20",
          "name": "destToken",
          "type": "address"
        },
        {
          "internalType": "uint256",
          "name": "amount",
          "type": "uint256"
        },
        {
          "internalType": "uint256",
          "name": "minReturn",
          "type": "uint256"
        },
        {
          "internalType": "uint256[]",
          "name": "distribution",
          "type": "uint256[]"
        },
        {
          "internalType": "uint256",
          "name": "flags",
          "type": "uint256"
        }
      ],
      "name": "executeSwap",
      "outputs": [],
      "stateMutability": "nonpayable",
      "type": "function"
    },
    {
      "inputs": [
        {
          "internalType": "address",
          "name": "",
          "type": "address"
        }
      ],
      "name": "followers",
      "outputs": [
        {
          "internalType": "address",
          "name": "",
          "type": "address"
        }
      ],
      "stateMutability": "view",
      "type": "function"
    },
    {
      "inputs": [],
      "name": "onesplit",
      "outputs": [
        {
          "internalType": "contract IOneSplit",
          "name": "",
          "type": "address"
        }
      ],
      "stateMutability": "view",
      "type": "function"
    },
    {
      "inputs": [],
      "name": "owner",
      "outputs": [
        {
          "internalType": "address",
          "name": "",
          "type": "address"
        }
      ],
      "stateMutability": "view",
      "type": "function"
    },
    {
      "inputs": [],
      "name": "renounceOwnership",
      "outputs": [],
      "stateMutability": "nonpayable",
      "type": "function"
    },
    {
      "inputs": [
        {
          "internalType": "address",
          "name": "newOwner",
          "type": "address"
        }
      ],
      "name": "transferOwnership",
      "outputs": [],
      "stateMutability": "nonpayable",
      "type": "function"
    },
    {
      "inputs": [
        {
          "internalType": "contract IERC20",
          "name": "token",
          "type": "address"
        },
        {
          "internalType": "uint256",
          "name": "amount",
          "type": "uint256"
        }
      ],
      "name": "withdrawERC20",
      "outputs": [],
      "stateMutability": "nonpayable",
      "type": "function"
    }
  ],
  "bytecode": "0x60806040523480156200001157600080fd5b5060405162001d3138038062001d318339818101604052810190620000379190620001e9565b620000576200004b6200009f60201b60201c565b620000a760201b60201c565b80600160006101000a81548173ffffffffffffffffffffffffffffffffffffffff021916908373ffffffffffffffffffffffffffffffffffffffff160217905550506200021b565b600033905090565b60008060009054906101000a900473ffffffffffffffffffffffffffffffffffffffff169050816000806101000a81548173ffffffffffffffffffffffffffffffffffffffff021916908373ffffffffffffffffffffffffffffffffffffffff1602179055508173ffffffffffffffffffffffffffffffffffffffff168173ffffffffffffffffffffffffffffffffffffffff167f8be0079c531659141344cd1fd0a4f28419497f9722a3daafe3b4186f6b6457e060405160405180910390a35050565b600080fd5b600073ffffffffffffffffffffffffffffffffffffffff82169050919050565b60006200019d8262000170565b9050919050565b6000620001b18262000190565b9050919050565b620001c381620001a4565b8114620001cf57600080fd5b50565b600081519050620001e381620001b8565b92915050565b6000602082840312156200020257620002016200016b565b5b60006200021284828501620001d2565b91505092915050565b611b06806200022b6000396000f3fe608060405234801561001057600080fd5b506004361061009e5760003560e01c8063c23f001f11610066578063c23f001f14610133578063f2fde38b14610163578063f712adbb1461017f578063fc7e286d1461019d578063fd8e9257146101cd5761009e565b80631828686a146100a3578063715018a6146100bf5780638da5cb5b146100c957806395d955e2146100e7578063a1db978214610117575b600080fd5b6100bd60048036038101906100b891906110fc565b6101e9565b005b6100c7610457565b005b6100d161046b565b6040516100de919061115e565b60405180910390f35b61010160048036038101906100fc9190611179565b610494565b60405161010e919061115e565b60405180910390f35b610131600480360381019061012c91906111a6565b6104c7565b005b61014d600480360381019061014891906111e6565b610728565b60405161015a9190611235565b60405180910390f35b61017d60048036038101906101789190611179565b61074d565b005b6101876107d0565b60405161019491906112af565b60405180910390f35b6101b760048036038101906101b29190611179565b6107f6565b6040516101c49190611235565b60405180910390f35b6101e760048036038101906101e29190611423565b61080e565b005b6000821161022c576040517f08c379a000000000000000000000000000000000000000000000000000000000815260040161022390611529565b60405180910390fd5b8273ffffffffffffffffffffffffffffffffffffffff166323b872dd3330856040518463ffffffff1660e01b815260040161026993929190611549565b6020604051808303816000875af1158015610288573d6000803e3d6000fd5b505050506040513d601f19601f820116820180604052508101906102ac91906115b8565b6102eb576040517f08c379a00000000000000000000000000000000000000000000000000000000081526004016102e290611631565b60405180910390fd5b81600360003373ffffffffffffffffffffffffffffffffffffffff1673ffffffffffffffffffffffffffffffffffffffff16815260200190815260200160002060008573ffffffffffffffffffffffffffffffffffffffff1673ffffffffffffffffffffffffffffffffffffffff16815260200190815260200160002060008282546103779190611680565b9250508190555080600460003373ffffffffffffffffffffffffffffffffffffffff1673ffffffffffffffffffffffffffffffffffffffff16815260200190815260200160002060006101000a81548173ffffffffffffffffffffffffffffffffffffffff021916908373ffffffffffffffffffffffffffffffffffffffff16021790555081600260003373ffffffffffffffffffffffffffffffffffffffff1673ffffffffffffffffffffffffffffffffffffffff168152602001908152602001600020600082825461044b9190611680565b92505081905550505050565b61045f610ecc565b6104696000610f4a565b565b60008060009054906101000a900473ffffffffffffffffffffffffffffffffffffffff16905090565b60046020528060005260406000206000915054906101000a900473ffffffffffffffffffffffffffffffffffffffff1681565b80600360003373ffffffffffffffffffffffffffffffffffffffff1673ffffffffffffffffffffffffffffffffffffffff16815260200190815260200160002060008473ffffffffffffffffffffffffffffffffffffffff1673ffffffffffffffffffffffffffffffffffffffff168152602001908152602001600020541015610586576040517f08c379a000000000000000000000000000000000000000000000000000000000815260040161057d90611700565b60405180910390fd5b80600360003373ffffffffffffffffffffffffffffffffffffffff1673ffffffffffffffffffffffffffffffffffffffff16815260200190815260200160002060008473ffffffffffffffffffffffffffffffffffffffff1673ffffffffffffffffffffffffffffffffffffffff16815260200190815260200160002060008282546106129190611720565b925050819055508173ffffffffffffffffffffffffffffffffffffffff1663a9059cbb33836040518363ffffffff1660e01b8152600401610654929190611754565b6020604051808303816000875af1158015610673573d6000803e3d6000fd5b505050506040513d601f19601f8201168201806040525081019061069791906115b8565b6106d6576040517f08c379a00000000000000000000000000000000000000000000000000000000081526004016106cd90611631565b60405180910390fd5b3373ffffffffffffffffffffffffffffffffffffffff167f7fcf532c15f0a6db0bd6d0e038bea71d30d808c7d98cb3bf7268a95bf5081b658260405161071c9190611235565b60405180910390a25050565b6003602052816000526040600020602052806000526040600020600091509150505481565b610755610ecc565b600073ffffffffffffffffffffffffffffffffffffffff168173ffffffffffffffffffffffffffffffffffffffff16036107c4576040517f08c379a00000000000000000000000000000000000000000000000000000000081526004016107bb906117ef565b60405180910390fd5b6107cd81610f4a565b50565b600160009054906101000a900473ffffffffffffffffffffffffffffffffffffffff1681565b60026020528060005260406000206000915090505481565b8573ffffffffffffffffffffffffffffffffffffffff166323b872dd3330876040518463ffffffff1660e01b815260040161084b93929190611549565b6020604051808303816000875af115801561086a573d6000803e3d6000fd5b505050506040513d601f19601f8201168201806040525081019061088e91906115b8565b6108cd576040517f08c379a00000000000000000000000000000000000000000000000000000000081526004016108c490611631565b60405180910390fd5b8573ffffffffffffffffffffffffffffffffffffffff1663095ea7b3600160009054906101000a900473ffffffffffffffffffffffffffffffffffffffff16866040518363ffffffff1660e01b815260040161092a929190611754565b6020604051808303816000875af1158015610949573d6000803e3d6000fd5b505050506040513d601f19601f8201168201806040525081019061096d91906115b8565b6109ac576040517f08c379a00000000000000000000000000000000000000000000000000000000081526004016109a39061185b565b60405180910390fd5b600160009054906101000a900473ffffffffffffffffffffffffffffffffffffffff1673ffffffffffffffffffffffffffffffffffffffff1663e2a7515e8787878787876040518763ffffffff1660e01b8152600401610a119695949392919061195a565b6020604051808303816000875af1158015610a30573d6000803e3d6000fd5b505050506040513d601f19601f82011682018060405250810190610a5491906119d7565b506000600460003373ffffffffffffffffffffffffffffffffffffffff1673ffffffffffffffffffffffffffffffffffffffff16815260200190815260200160002060009054906101000a900473ffffffffffffffffffffffffffffffffffffffff1690506000600360008373ffffffffffffffffffffffffffffffffffffffff1673ffffffffffffffffffffffffffffffffffffffff16815260200190815260200160002060008973ffffffffffffffffffffffffffffffffffffffff1673ffffffffffffffffffffffffffffffffffffffff168152602001908152602001600020549050858110158015610bd157506002600360003373ffffffffffffffffffffffffffffffffffffffff1673ffffffffffffffffffffffffffffffffffffffff16815260200190815260200160002060008a73ffffffffffffffffffffffffffffffffffffffff1673ffffffffffffffffffffffffffffffffffffffff16815260200190815260200160002054610bce9190611a33565b86115b15610e70578773ffffffffffffffffffffffffffffffffffffffff166323b872dd8330846040518463ffffffff1660e01b8152600401610c1393929190611549565b6020604051808303816000875af1158015610c32573d6000803e3d6000fd5b505050506040513d601f19601f82011682018060405250810190610c5691906115b8565b610c95576040517f08c379a0000000000000000000000000000000000000000000000000000000008152600401610c8c90611631565b60405180910390fd5b8773ffffffffffffffffffffffffffffffffffffffff1663095ea7b3600160009054906101000a900473ffffffffffffffffffffffffffffffffffffffff16836040518363ffffffff1660e01b8152600401610cf2929190611754565b6020604051808303816000875af1158015610d11573d6000803e3d6000fd5b505050506040513d601f19601f82011682018060405250810190610d3591906115b8565b610d74576040517f08c379a0000000000000000000000000000000000000000000000000000000008152600401610d6b9061185b565b60405180910390fd5b600160009054906101000a900473ffffffffffffffffffffffffffffffffffffffff1673ffffffffffffffffffffffffffffffffffffffff1663e2a7515e8989848989896040518763ffffffff1660e01b8152600401610dd99695949392919061195a565b6020604051808303816000875af1158015610df8573d6000803e3d6000fd5b505050506040513d601f19601f82011682018060405250810190610e1c91906119d7565b508173ffffffffffffffffffffffffffffffffffffffff167f3622de7cc0c15173bef9e6c183be9ed8a4211c34434c620e16627985aa1b2a8c898984604051610e6793929190611549565b60405180910390a25b3373ffffffffffffffffffffffffffffffffffffffff167f3622de7cc0c15173bef9e6c183be9ed8a4211c34434c620e16627985aa1b2a8c898989604051610eba93929190611549565b60405180910390a25050505050505050565b610ed461100e565b73ffffffffffffffffffffffffffffffffffffffff16610ef261046b565b73ffffffffffffffffffffffffffffffffffffffff1614610f48576040517f08c379a0000000000000000000000000000000000000000000000000000000008152600401610f3f90611ab0565b60405180910390fd5b565b60008060009054906101000a900473ffffffffffffffffffffffffffffffffffffffff169050816000806101000a81548173ffffffffffffffffffffffffffffffffffffffff021916908373ffffffffffffffffffffffffffffffffffffffff1602179055508173ffffffffffffffffffffffffffffffffffffffff168173ffffffffffffffffffffffffffffffffffffffff167f8be0079c531659141344cd1fd0a4f28419497f9722a3daafe3b4186f6b6457e060405160405180910390a35050565b600033905090565b6000604051905090565b600080fd5b600080fd5b600073ffffffffffffffffffffffffffffffffffffffff82169050919050565b60006110558261102a565b9050919050565b60006110678261104a565b9050919050565b6110778161105c565b811461108257600080fd5b50565b6000813590506110948161106e565b92915050565b6000819050919050565b6110ad8161109a565b81146110b857600080fd5b50565b6000813590506110ca816110a4565b92915050565b6110d98161104a565b81146110e457600080fd5b50565b6000813590506110f6816110d0565b92915050565b60008060006060848603121561111557611114611020565b5b600061112386828701611085565b9350506020611134868287016110bb565b9250506040611145868287016110e7565b9150509250925092565b6111588161104a565b82525050565b6000602082019050611173600083018461114f565b92915050565b60006020828403121561118f5761118e611020565b5b600061119d848285016110e7565b91505092915050565b600080604083850312156111bd576111bc611020565b5b60006111cb85828601611085565b92505060206111dc858286016110bb565b9150509250929050565b600080604083850312156111fd576111fc611020565b5b600061120b858286016110e7565b925050602061121c85828601611085565b9150509250929050565b61122f8161109a565b82525050565b600060208201905061124a6000830184611226565b92915050565b6000819050919050565b600061127561127061126b8461102a565b611250565b61102a565b9050919050565b60006112878261125a565b9050919050565b60006112998261127c565b9050919050565b6112a98161128e565b82525050565b60006020820190506112c460008301846112a0565b92915050565b600080fd5b6000601f19601f8301169050919050565b7f4e487b7100000000000000000000000000000000000000000000000000000000600052604160045260246000fd5b611318826112cf565b810181811067ffffffffffffffff82111715611337576113366112e0565b5b80604052505050565b600061134a611016565b9050611356828261130f565b919050565b600067ffffffffffffffff821115611376576113756112e0565b5b602082029050602081019050919050565b600080fd5b600061139f61139a8461135b565b611340565b905080838252602082019050602084028301858111156113c2576113c1611387565b5b835b818110156113eb57806113d788826110bb565b8452602084019350506020810190506113c4565b5050509392505050565b600082601f83011261140a576114096112ca565b5b813561141a84826020860161138c565b91505092915050565b60008060008060008060c087890312156114405761143f611020565b5b600061144e89828a01611085565b965050602061145f89828a01611085565b955050604061147089828a016110bb565b945050606061148189828a016110bb565b935050608087013567ffffffffffffffff8111156114a2576114a1611025565b5b6114ae89828a016113f5565b92505060a06114bf89828a016110bb565b9150509295509295509295565b600082825260208201905092915050565b7f4d7573742073656e6420706f7369746976652076616c75650000000000000000600082015250565b60006115136018836114cc565b915061151e826114dd565b602082019050919050565b6000602082019050818103600083015261154281611506565b9050919050565b600060608201905061155e600083018661114f565b61156b602083018561114f565b6115786040830184611226565b949350505050565b60008115159050919050565b61159581611580565b81146115a057600080fd5b50565b6000815190506115b28161158c565b92915050565b6000602082840312156115ce576115cd611020565b5b60006115dc848285016115a3565b91505092915050565b7f5472616e73666572206661696c65640000000000000000000000000000000000600082015250565b600061161b600f836114cc565b9150611626826115e5565b602082019050919050565b6000602082019050818103600083015261164a8161160e565b9050919050565b7f4e487b7100000000000000000000000000000000000000000000000000000000600052601160045260246000fd5b600061168b8261109a565b91506116968361109a565b92508282019050808211156116ae576116ad611651565b5b92915050565b7f496e73756666696369656e742066756e64730000000000000000000000000000600082015250565b60006116ea6012836114cc565b91506116f5826116b4565b602082019050919050565b60006020820190508181036000830152611719816116dd565b9050919050565b600061172b8261109a565b91506117368361109a565b925082820390508181111561174e5761174d611651565b5b92915050565b6000604082019050611769600083018561114f565b6117766020830184611226565b9392505050565b7f4f776e61626c653a206e6577206f776e657220697320746865207a65726f206160008201527f6464726573730000000000000000000000000000000000000000000000000000602082015250565b60006117d96026836114cc565b91506117e48261177d565b604082019050919050565b60006020820190508181036000830152611808816117cc565b9050919050565b7f417070726f76616c206661696c65640000000000000000000000000000000000600082015250565b6000611845600f836114cc565b91506118508261180f565b602082019050919050565b6000602082019050818103600083015261187481611838565b9050919050565b60006118868261127c565b9050919050565b6118968161187b565b82525050565b600081519050919050565b600082825260208201905092915050565b6000819050602082019050919050565b6118d18161109a565b82525050565b60006118e383836118c8565b60208301905092915050565b6000602082019050919050565b60006119078261189c565b61191181856118a7565b935061191c836118b8565b8060005b8381101561194d57815161193488826118d7565b975061193f836118ef565b925050600181019050611920565b5085935050505092915050565b600060c08201905061196f600083018961188d565b61197c602083018861188d565b6119896040830187611226565b6119966060830186611226565b81810360808301526119a881856118fc565b90506119b760a0830184611226565b979650505050505050565b6000815190506119d1816110a4565b92915050565b6000602082840312156119ed576119ec611020565b5b60006119fb848285016119c2565b91505092915050565b7f4e487b7100000000000000000000000000000000000000000000000000000000600052601260045260246000fd5b6000611a3e8261109a565b9150611a498361109a565b925082611a5957611a58611a04565b5b828204905092915050565b7f4f776e61626c653a2063616c6c6572206973206e6f7420746865206f776e6572600082015250565b6000611a9a6020836114cc565b9150611aa582611a64565b602082019050919050565b60006020820190508181036000830152611ac981611a8d565b905091905056fea26469706673582212208020bb24a917c517e637762b133eb5e9054636d5b58667c7fc302b031abc56f764736f6c63430008120033",
  "linkReferences": {},
  "deployedLinkReferences": {}
}