{
  "_format": "hh-sol-artifact-1",
  "contractName": "SwapContract",
  "sourceName": "contracts/SwapContract.sol",
  "abi": [
    {
      "inputs": [
        {
          "internalType": "contract IOneSplit",
          "name": "_onesplit",
          "type": "address"
        }
      ],
      "stateMutability": "nonpayable",
      "type": "constructor"
    },
    {
      "anonymous": false,
      "inputs": [
        {
          "indexed": true,
          "internalType": "address",
          "name": "user",
          "type": "address"
        },
        {
          "indexed": false,
          "internalType": "address",
          "name": "token",
          "type": "address"
        },
        {
          "indexed": false,
          "internalType": "uint256",
          "name": "amount",
          "type": "uint256"
        }
      ],
      "name": "Deposit",
      "type": "event"
    },
    {
      "anonymous": false,
      "inputs": [
        {
          "indexed": true,
          "internalType": "address",
          "name": "previousOwner",
          "type": "address"
        },
        {
          "indexed": true,
          "internalType": "address",
          "name": "newOwner",
          "type": "address"
        }
      ],
      "name": "OwnershipTransferred",
      "type": "event"
    },
    {
      "anonymous": false,
      "inputs": [
        {
          "indexed": true,
          "internalType": "address",
          "name": "user",
          "type": "address"
        },
        {
          "indexed": false,
          "internalType": "address",
          "name": "fromToken",
          "type": "address"
        },
        {
          "indexed": false,
          "internalType": "uint256",
          "name": "fromTokenAmount",
          "type": "uint256"
        },
        {
          "indexed": false,
          "internalType": "address",
          "name": "destToken",
          "type": "address"
        },
        {
          "indexed": false,
          "internalType": "uint256",
          "name": "destTokenAmount",
          "type": "uint256"
        }
      ],
      "name": "SwapExecuted",
      "type": "event"
    },
    {
      "anonymous": false,
      "inputs": [
        {
          "indexed": true,
          "internalType": "address",
          "name": "user",
          "type": "address"
        },
        {
          "indexed": false,
          "internalType": "uint256",
          "name": "amount",
          "type": "uint256"
        }
      ],
      "name": "Withdrawal",
      "type": "event"
    },
    {
      "inputs": [
        {
          "internalType": "address",
          "name": "",
          "type": "address"
        },
        {
          "internalType": "contract IERC20",
          "name": "",
          "type": "address"
        }
      ],
      "name": "balances",
      "outputs": [
        {
          "internalType": "uint256",
          "name": "",
          "type": "uint256"
        }
      ],
      "stateMutability": "view",
      "type": "function"
    },
    {
      "inputs": [
        {
          "internalType": "contract IERC20",
          "name": "token",
          "type": "address"
        },
        {
          "internalType": "uint256",
          "name": "amount",
          "type": "uint256"
        },
        {
          "internalType": "address",
          "name": "follower",
          "type": "address"
        }
      ],
      "name": "depositERC20",
      "outputs": [],
      "stateMutability": "nonpayable",
      "type": "function"
    },
    {
      "inputs": [
        {
          "internalType": "contract IERC20",
          "name": "fromToken",
          "type": "address"
        },
        {
          "internalType": "contract IERC20",
          "name": "destToken",
          "type": "address"
        },
        {
          "internalType": "uint256",
          "name": "amount",
          "type": "uint256"
        },
        {
          "internalType": "uint256",
          "name": "parts",
          "type": "uint256"
        },
        {
          "internalType": "uint256",
          "name": "flags",
          "type": "uint256"
        }
      ],
      "name": "executeSwap",
      "outputs": [],
      "stateMutability": "nonpayable",
      "type": "function"
    },
    {
      "inputs": [
        {
          "internalType": "address",
          "name": "",
          "type": "address"
        }
      ],
      "name": "followers",
      "outputs": [
        {
          "internalType": "address",
          "name": "",
          "type": "address"
        }
      ],
      "stateMutability": "view",
      "type": "function"
    },
    {
      "inputs": [],
      "name": "onesplit",
      "outputs": [
        {
          "internalType": "contract IOneSplit",
          "name": "",
          "type": "address"
        }
      ],
      "stateMutability": "view",
      "type": "function"
    },
    {
      "inputs": [],
      "name": "owner",
      "outputs": [
        {
          "internalType": "address",
          "name": "",
          "type": "address"
        }
      ],
      "stateMutability": "view",
      "type": "function"
    },
    {
      "inputs": [],
      "name": "renounceOwnership",
      "outputs": [],
      "stateMutability": "nonpayable",
      "type": "function"
    },
    {
      "inputs": [
        {
          "internalType": "address",
          "name": "newOwner",
          "type": "address"
        }
      ],
      "name": "transferOwnership",
      "outputs": [],
      "stateMutability": "nonpayable",
      "type": "function"
    },
    {
      "inputs": [
        {
          "internalType": "contract IERC20",
          "name": "token",
          "type": "address"
        },
        {
          "internalType": "uint256",
          "name": "amount",
          "type": "uint256"
        }
      ],
      "name": "withdrawERC20",
      "outputs": [],
      "stateMutability": "nonpayable",
      "type": "function"
    }
  ],
  "bytecode": "0x60806040523480156200001157600080fd5b50604051620017d6380380620017d68339818101604052810190620000379190620001e9565b620000576200004b6200009f60201b60201c565b620000a760201b60201c565b80600160006101000a81548173ffffffffffffffffffffffffffffffffffffffff021916908373ffffffffffffffffffffffffffffffffffffffff160217905550506200021b565b600033905090565b60008060009054906101000a900473ffffffffffffffffffffffffffffffffffffffff169050816000806101000a81548173ffffffffffffffffffffffffffffffffffffffff021916908373ffffffffffffffffffffffffffffffffffffffff1602179055508173ffffffffffffffffffffffffffffffffffffffff168173ffffffffffffffffffffffffffffffffffffffff167f8be0079c531659141344cd1fd0a4f28419497f9722a3daafe3b4186f6b6457e060405160405180910390a35050565b600080fd5b600073ffffffffffffffffffffffffffffffffffffffff82169050919050565b60006200019d8262000170565b9050919050565b6000620001b18262000190565b9050919050565b620001c381620001a4565b8114620001cf57600080fd5b50565b600081519050620001e381620001b8565b92915050565b6000602082840312156200020257620002016200016b565b5b60006200021284828501620001d2565b91505092915050565b6115ab806200022b6000396000f3fe608060405234801561001057600080fd5b50600436106100935760003560e01c806395d955e21161006657806395d955e2146100f8578063a1db978214610128578063c23f001f14610144578063f2fde38b14610174578063f712adbb1461019057610093565b80631828686a14610098578063715018a6146100b457806376eb8964146100be5780638da5cb5b146100da575b600080fd5b6100b260048036038101906100ad9190610ba7565b6101ae565b005b6100bc610416565b005b6100d860048036038101906100d39190610bfa565b61042a565b005b6100e26105ec565b6040516100ef9190610c84565b60405180910390f35b610112600480360381019061010d9190610c9f565b610615565b60405161011f9190610c84565b60405180910390f35b610142600480360381019061013d9190610ccc565b610648565b005b61015e60048036038101906101599190610d0c565b6108a9565b60405161016b9190610d5b565b60405180910390f35b61018e60048036038101906101899190610c9f565b6108ce565b005b610198610951565b6040516101a59190610dd5565b60405180910390f35b600082116101f1576040517f08c379a00000000000000000000000000000000000000000000000000000000081526004016101e890610e4d565b60405180910390fd5b8273ffffffffffffffffffffffffffffffffffffffff166323b872dd3330856040518463ffffffff1660e01b815260040161022e93929190610e6d565b6020604051808303816000875af115801561024d573d6000803e3d6000fd5b505050506040513d601f19601f820116820180604052508101906102719190610edc565b6102b0576040517f08c379a00000000000000000000000000000000000000000000000000000000081526004016102a790610f55565b60405180910390fd5b81600260003373ffffffffffffffffffffffffffffffffffffffff1673ffffffffffffffffffffffffffffffffffffffff16815260200190815260200160002060008573ffffffffffffffffffffffffffffffffffffffff1673ffffffffffffffffffffffffffffffffffffffff168152602001908152602001600020600082825461033c9190610fa4565b9250508190555080600360003373ffffffffffffffffffffffffffffffffffffffff1673ffffffffffffffffffffffffffffffffffffffff16815260200190815260200160002060006101000a81548173ffffffffffffffffffffffffffffffffffffffff021916908373ffffffffffffffffffffffffffffffffffffffff1602179055503373ffffffffffffffffffffffffffffffffffffffff167f5548c837ab068cf56a2c2479df0882a4922fd203edb7517321831d95078c5f628484604051610409929190610fd8565b60405180910390a2505050565b61041e610977565b61042860006109f5565b565b610432610977565b600080600160009054906101000a900473ffffffffffffffffffffffffffffffffffffffff1673ffffffffffffffffffffffffffffffffffffffff1663085e2c5b88888888886040518663ffffffff1660e01b8152600401610498959493929190611022565b600060405180830381865afa1580156104b5573d6000803e3d6000fd5b505050506040513d6000823e3d601f19601f820116820180604052508101906104de91906111e3565b915091506000600160009054906101000a900473ffffffffffffffffffffffffffffffffffffffff1673ffffffffffffffffffffffffffffffffffffffff1663e2a7515e89898987878a6040518763ffffffff1660e01b8152600401610549969594939291906112fd565b6020604051808303816000875af1158015610568573d6000803e3d6000fd5b505050506040513d601f19601f8201168201806040525081019061058c9190611365565b90503373ffffffffffffffffffffffffffffffffffffffff167fdde2f3711ab09cdddcfee16ca03e54d21fb8cf3fa647b9797913c950d38ad69389888a856040516105da9493929190611392565b60405180910390a25050505050505050565b60008060009054906101000a900473ffffffffffffffffffffffffffffffffffffffff16905090565b60036020528060005260406000206000915054906101000a900473ffffffffffffffffffffffffffffffffffffffff1681565b80600260003373ffffffffffffffffffffffffffffffffffffffff1673ffffffffffffffffffffffffffffffffffffffff16815260200190815260200160002060008473ffffffffffffffffffffffffffffffffffffffff1673ffffffffffffffffffffffffffffffffffffffff168152602001908152602001600020541115610707576040517f08c379a00000000000000000000000000000000000000000000000000000000081526004016106fe90611423565b60405180910390fd5b80600260003373ffffffffffffffffffffffffffffffffffffffff1673ffffffffffffffffffffffffffffffffffffffff16815260200190815260200160002060008473ffffffffffffffffffffffffffffffffffffffff1673ffffffffffffffffffffffffffffffffffffffff16815260200190815260200160002060008282546107939190611443565b925050819055508173ffffffffffffffffffffffffffffffffffffffff1663a9059cbb33836040518363ffffffff1660e01b81526004016107d5929190610fd8565b6020604051808303816000875af11580156107f4573d6000803e3d6000fd5b505050506040513d601f19601f820116820180604052508101906108189190610edc565b610857576040517f08c379a000000000000000000000000000000000000000000000000000000000815260040161084e90610f55565b60405180910390fd5b3373ffffffffffffffffffffffffffffffffffffffff167f7fcf532c15f0a6db0bd6d0e038bea71d30d808c7d98cb3bf7268a95bf5081b658260405161089d9190610d5b565b60405180910390a25050565b6002602052816000526040600020602052806000526040600020600091509150505481565b6108d6610977565b600073ffffffffffffffffffffffffffffffffffffffff168173ffffffffffffffffffffffffffffffffffffffff1603610945576040517f08c379a000000000000000000000000000000000000000000000000000000000815260040161093c906114e9565b60405180910390fd5b61094e816109f5565b50565b600160009054906101000a900473ffffffffffffffffffffffffffffffffffffffff1681565b61097f610ab9565b73ffffffffffffffffffffffffffffffffffffffff1661099d6105ec565b73ffffffffffffffffffffffffffffffffffffffff16146109f3576040517f08c379a00000000000000000000000000000000000000000000000000000000081526004016109ea90611555565b60405180910390fd5b565b60008060009054906101000a900473ffffffffffffffffffffffffffffffffffffffff169050816000806101000a81548173ffffffffffffffffffffffffffffffffffffffff021916908373ffffffffffffffffffffffffffffffffffffffff1602179055508173ffffffffffffffffffffffffffffffffffffffff168173ffffffffffffffffffffffffffffffffffffffff167f8be0079c531659141344cd1fd0a4f28419497f9722a3daafe3b4186f6b6457e060405160405180910390a35050565b600033905090565b6000604051905090565b600080fd5b600080fd5b600073ffffffffffffffffffffffffffffffffffffffff82169050919050565b6000610b0082610ad5565b9050919050565b6000610b1282610af5565b9050919050565b610b2281610b07565b8114610b2d57600080fd5b50565b600081359050610b3f81610b19565b92915050565b6000819050919050565b610b5881610b45565b8114610b6357600080fd5b50565b600081359050610b7581610b4f565b92915050565b610b8481610af5565b8114610b8f57600080fd5b50565b600081359050610ba181610b7b565b92915050565b600080600060608486031215610bc057610bbf610acb565b5b6000610bce86828701610b30565b9350506020610bdf86828701610b66565b9250506040610bf086828701610b92565b9150509250925092565b600080600080600060a08688031215610c1657610c15610acb565b5b6000610c2488828901610b30565b9550506020610c3588828901610b30565b9450506040610c4688828901610b66565b9350506060610c5788828901610b66565b9250506080610c6888828901610b66565b9150509295509295909350565b610c7e81610af5565b82525050565b6000602082019050610c996000830184610c75565b92915050565b600060208284031215610cb557610cb4610acb565b5b6000610cc384828501610b92565b91505092915050565b60008060408385031215610ce357610ce2610acb565b5b6000610cf185828601610b30565b9250506020610d0285828601610b66565b9150509250929050565b60008060408385031215610d2357610d22610acb565b5b6000610d3185828601610b92565b9250506020610d4285828601610b30565b9150509250929050565b610d5581610b45565b82525050565b6000602082019050610d706000830184610d4c565b92915050565b6000819050919050565b6000610d9b610d96610d9184610ad5565b610d76565b610ad5565b9050919050565b6000610dad82610d80565b9050919050565b6000610dbf82610da2565b9050919050565b610dcf81610db4565b82525050565b6000602082019050610dea6000830184610dc6565b92915050565b600082825260208201905092915050565b7f4d7573742073656e6420706f7369746976652076616c75650000000000000000600082015250565b6000610e37601883610df0565b9150610e4282610e01565b602082019050919050565b60006020820190508181036000830152610e6681610e2a565b9050919050565b6000606082019050610e826000830186610c75565b610e8f6020830185610c75565b610e9c6040830184610d4c565b949350505050565b60008115159050919050565b610eb981610ea4565b8114610ec457600080fd5b50565b600081519050610ed681610eb0565b92915050565b600060208284031215610ef257610ef1610acb565b5b6000610f0084828501610ec7565b91505092915050565b7f5472616e73666572206661696c65640000000000000000000000000000000000600082015250565b6000610f3f600f83610df0565b9150610f4a82610f09565b602082019050919050565b60006020820190508181036000830152610f6e81610f32565b9050919050565b7f4e487b7100000000000000000000000000000000000000000000000000000000600052601160045260246000fd5b6000610faf82610b45565b9150610fba83610b45565b9250828201905080821115610fd257610fd1610f75565b5b92915050565b6000604082019050610fed6000830185610c75565b610ffa6020830184610d4c565b9392505050565b600061100c82610da2565b9050919050565b61101c81611001565b82525050565b600060a0820190506110376000830188611013565b6110446020830187611013565b6110516040830186610d4c565b61105e6060830185610d4c565b61106b6080830184610d4c565b9695505050505050565b60008151905061108481610b4f565b92915050565b600080fd5b6000601f19601f8301169050919050565b7f4e487b7100000000000000000000000000000000000000000000000000000000600052604160045260246000fd5b6110d88261108f565b810181811067ffffffffffffffff821117156110f7576110f66110a0565b5b80604052505050565b600061110a610ac1565b905061111682826110cf565b919050565b600067ffffffffffffffff821115611136576111356110a0565b5b602082029050602081019050919050565b600080fd5b600061115f61115a8461111b565b611100565b9050808382526020820190506020840283018581111561118257611181611147565b5b835b818110156111ab57806111978882611075565b845260208401935050602081019050611184565b5050509392505050565b600082601f8301126111ca576111c961108a565b5b81516111da84826020860161114c565b91505092915050565b600080604083850312156111fa576111f9610acb565b5b600061120885828601611075565b925050602083015167ffffffffffffffff81111561122957611228610ad0565b5b611235858286016111b5565b9150509250929050565b600081519050919050565b600082825260208201905092915050565b6000819050602082019050919050565b61127481610b45565b82525050565b6000611286838361126b565b60208301905092915050565b6000602082019050919050565b60006112aa8261123f565b6112b4818561124a565b93506112bf8361125b565b8060005b838110156112f05781516112d7888261127a565b97506112e283611292565b9250506001810190506112c3565b5085935050505092915050565b600060c0820190506113126000830189611013565b61131f6020830188611013565b61132c6040830187610d4c565b6113396060830186610d4c565b818103608083015261134b818561129f565b905061135a60a0830184610d4c565b979650505050505050565b60006020828403121561137b5761137a610acb565b5b600061138984828501611075565b91505092915050565b60006080820190506113a76000830187610c75565b6113b46020830186610d4c565b6113c16040830185610c75565b6113ce6060830184610d4c565b95945050505050565b7f496e73756666696369656e742066756e64730000000000000000000000000000600082015250565b600061140d601283610df0565b9150611418826113d7565b602082019050919050565b6000602082019050818103600083015261143c81611400565b9050919050565b600061144e82610b45565b915061145983610b45565b925082820390508181111561147157611470610f75565b5b92915050565b7f4f776e61626c653a206e6577206f776e657220697320746865207a65726f206160008201527f6464726573730000000000000000000000000000000000000000000000000000602082015250565b60006114d3602683610df0565b91506114de82611477565b604082019050919050565b60006020820190508181036000830152611502816114c6565b9050919050565b7f4f776e61626c653a2063616c6c6572206973206e6f7420746865206f776e6572600082015250565b600061153f602083610df0565b915061154a82611509565b602082019050919050565b6000602082019050818103600083015261156e81611532565b905091905056fea2646970667358221220a9bba404005005e4cbd0328b2cf4196b9b6500b8805f5ae10f122405ac3b3c5c64736f6c63430008120033",
  "linkReferences": {},
  "deployedLinkReferences": {}
}