{
  "_format": "hh-sol-artifact-1",
  "contractName": "MockOneSplit",
  "sourceName": "contracts/Mocks.sol",
  "abi": [
    {
      "inputs": [
        {
          "internalType": "contract IERC20",
          "name": "fromToken",
          "type": "address"
        },
        {
          "internalType": "contract IERC20",
          "name": "destToken",
          "type": "address"
        },
        {
          "internalType": "uint256",
          "name": "amount",
          "type": "uint256"
        },
        {
          "internalType": "uint256",
          "name": "minReturn",
          "type": "uint256"
        },
        {
          "internalType": "uint256[]",
          "name": "distribution",
          "type": "uint256[]"
        },
        {
          "internalType": "uint256",
          "name": "flags",
          "type": "uint256"
        }
      ],
      "name": "swap",
      "outputs": [
        {
          "internalType": "uint256",
          "name": "returnAmount",
          "type": "uint256"
        }
      ],
      "stateMutability": "payable",
      "type": "function"
    }
  ],
  "bytecode": "0x608060405234801561001057600080fd5b50610287806100206000396000f3fe60806040526004361061001e5760003560e01c8063e2a7515e14610023575b600080fd5b61003d60048036038101906100389190610178565b610053565b60405161004a9190610236565b60405180910390f35b6000859050979650505050505050565b600080fd5b600080fd5b600073ffffffffffffffffffffffffffffffffffffffff82169050919050565b60006100988261006d565b9050919050565b60006100aa8261008d565b9050919050565b6100ba8161009f565b81146100c557600080fd5b50565b6000813590506100d7816100b1565b92915050565b6000819050919050565b6100f0816100dd565b81146100fb57600080fd5b50565b60008135905061010d816100e7565b92915050565b600080fd5b600080fd5b600080fd5b60008083601f84011261013857610137610113565b5b8235905067ffffffffffffffff81111561015557610154610118565b5b6020830191508360208202830111156101715761017061011d565b5b9250929050565b600080600080600080600060c0888a03121561019757610196610063565b5b60006101a58a828b016100c8565b97505060206101b68a828b016100c8565b96505060406101c78a828b016100fe565b95505060606101d88a828b016100fe565b945050608088013567ffffffffffffffff8111156101f9576101f8610068565b5b6102058a828b01610122565b935093505060a06102188a828b016100fe565b91505092959891949750929550565b610230816100dd565b82525050565b600060208201905061024b6000830184610227565b9291505056fea2646970667358221220ea5d5d9b8ff37173b49e5365407add0721f1bfe926ee3114dfd6599dfafa8e2264736f6c63430008120033",
  "linkReferences": {},
  "deployedLinkReferences": {}
}